:020000040000FA
:040000002FEF00F0EE
:100008005782FACF05F0FBCF06F0D9CF07F0DACF49
:1000180008F0F2BAF2A403D057EC16F012D0F2BCF2
:100028009DAA0FD09EAA0DD001D80BD005000001C3
:10003800FA6EDF51FD6EE051FE6EF850FF6EFA5019
:10004800120008C0DAFF07C0D9FF06C0FBFF05C0D1
:0A005800FAFF57921100DAEF16F0DC
:10080000000000803F000020410000C84200007A44
:100810004400401C460050C3470024744980961889
:100820004B20BCBE4C286B6E4EF9021550EC78ADD7
:1008300060CAF249710000803FCDCCCC3D0AD7237D
:100840003C6F12833A17B7D138ACC52737BD37860E
:100850003595BFD63377CC2B325F708930FFE6DB1E
:100860002E08E53C1E6042A20D010000000A0000B7
:100870000064000000E803000010270000A08601CB
:100880000040420F008096980000E1F50500CA9AEA
:100890003B46697273744D51365F252E32660000F7
:1008A000466F75727468644D515F2564000053652E
:1008B000636F6E644D515F25640000546869726413
:1008C0004D515F256400004865790D0A0000880ECF
:1008D0000001936F000E946FA7EF08F0250EA71983
:1008E000D8B40AD084C0D9FF85C0DAFFA7C0DFFF23
:1008F000844B852BA7EF08F0000E966F000E956FC6
:1009000086C0F6FF87C0F7FF0800F5502E0AD8A46E
:100910002FD0968D864B872B000EA66F000EA56FED
:100920001CD0A5C009F0A6C00AF0000E0C6E0A0E7D
:100930000B6E50EC17F086C0F6FF87C0F7FF08007B
:10094000F5500926000E0A22D00E09240001A56FD9
:10095000FF0E0A20A66F864B872B86C0F6FF87C046
:10096000F7FF0800F55085EC17F0D8A009D0D9D7CB
:10097000000EA66F000EA56F968902D0968517D03F
:1009800086C0F6FF87C0F7FF0001864B872B080063
:10099000F5CFA7F0A751000AD8B4E6D3640AD8B4BB
:1009A00006D0020AD8B4EAD70F0AD8A4D0D3070ECB
:1009B0009615D8B40BD396A904D0000EA66F060ED8
:1009C000A56F93C0D9FF94C0DAFFDECFA1F0DECFD0
:1009D000A2F0DECFA3F0DECFA4F0040E9327000E2A
:1009E0009423A4AF15D0A1C009F0A2C00AF0A3C0FF
:1009F0000BF0A4C00CF00BEC17F009C0A1F00AC07A
:100A0000A2F00BC0A3F00CC0A4F0030E00019513DC
:100A1000000E986F000E976FA1C009F0A2C00AF0F7
:100A2000A3C00BF0A4C00CF0000E0D6E000E0E6EF5
:100A3000000E0F6E000E106ECEEC14F0D8B083D006
:100A40000001A335A435820F976F986BFF0E982392
:100A50009707D8A0980797C009F098C00AF0000E31
:100A60000C6E030E0B6E50EC17F009C097F00AC025
:100A700098F097C00FF098C010F0000E126E0A0E9A
:100A8000116E13EC15F00FC097F010C098F0000134
:100A900098AF03D09707D8A0980797510008BBECF0
:100AA00008F071C099F072C09AF073C09BF074C0E6
:100AB0009CF099C046F09AC047F09BC048F09CC09B
:100AC00049F0A1C04AF0A2C04BF0A3C04CF0A4C0B2
:100AD0004DF0ABEC0AF046C099F047C09AF048C020
:100AE0009BF049C09CF099C009F09AC00AF09BC0E5
:100AF0000BF09CC00CF0000E0D6E000E0E6E800E02
:100B00000F6E3F0E106E1BEC13F0D8B005D0000135
:100B10009707D8A0980717D099C009F09AC00AF093
:100B20009BC00BF09CC00CF0000E0D6E000E0E6E04
:100B3000200E0F6E410E106E1BEC13F0D8A003D0E8
:100B40000001974B982B0001A6BF06D0A65121E1CA
:100B50000D0EA55DD8B01DD0A1C015F0A2C016F035
:100B6000A3C017F0A4C018F0A551DBEC0DF071C0C4
:100B700019F072C01AF073C01BF074C01CF055EC71
:100B80000CF015C0A1F016C0A2F017C0A3F018C059
:100B9000A4F0000198BF06D0985130E10A0E975D8D
:100BA000D8B02CD0A1C009F0A2C00AF0A3C00BF0AD
:100BB000A4C00CF0000E0D6E000E0E6E000E0F6E37
:100BC000000E106ECEEC14F0D8B063D0A1C07AF055
:100BD000A2C07BF0A3C07CF0A4C07DF083EC13F036
:100BE00000017A517B117C117D11D8B498BF51D08E
:100BF000985104E1020E975DD8A04BD099C009F03E
:100C00009AC00AF09BC00BF09CC00CF05F0E0D6EFA
:100C1000700E0E6E890E0F6E400E106E1BEC13F0F0
:100C2000D8B003D00001F70E02D00001F80E9727CC
:100C3000FF0E98239751BBEC08F071C099F072C079
:100C40009AF073C09BF074C09CF0A1C009F0A2C0E0
:100C50000AF0A3C00BF0A4C00CF099C00DF09AC02C
:100C60000EF09BC00FF09CC010F0A1EC12F009C078
:100C70009DF00AC09EF00BC09FF00CC0A0F0000ECB
:100C80000001A16F000EA26F000EA36F000EA46FF3
:100C90003CD0A1C07AF0A2C07BF0A3C07CF0A4C07D
:100CA0007DF083EC13F07AC09DF07BC09EF07CC099
:100CB0009FF07DC0A0F0A1C025F0A2C026F0A3C087
:100CC00027F0A4C028F09DC00DF09EC00EF09FC07C
:100CD0000FF0A0C010F0000E82EC11F00DC029F052
:100CE0000EC02AF00FC02BF010C02CF07BEC16F0D9
:100CF00025C0A1F026C0A2F027C0A3F028C0A4F010
:100D0000000E0001986F000E976F010EA76FA7519C
:100D1000040D690EF324F66E080EF420F76E090038
:100D2000F5509D5D0900F5509E590900F5509F59F9
:100D30000900F550A059D8A005D0A72B0A0EA71975
:100D4000D8A4E5D7030E95158C6F000E96158D6F00
:100D50008C518D11D8B451D084C0D9FF85C0DAFF31
:100D60002D0EDF6E844B852B48D09DC009F09EC0B0
:100D70000AF09FC00BF0A0C00CF0A751040D690E43
:100D8000F324F66E080EF420F76E0900F5CF0DF08F
:100D90000900F5CF0EF00900F5CF0FF00A00F5CFEE
:100DA00010F055EC15F009C099F00AC09AF00BC08C
:100DB0009BF00CC09CF099C016F09AC017F09BC035
:100DC00018F09CC019F00A0E1A6E000E1B6E000E71
:100DD0001C6E000E1D6ECEEC15F016C099F017C0FB
:100DE0009AF018C09BF019C09CF000019951300F87
:100DF00084C0D9FF85C0DAFFB4D7A707A729D8B424
:100E00000CD0B3D784C0D9FF85C0DAFF300EDF6EB7
:100E1000844B852B9707D8A0980798BF05D0985189
:100E2000F1E19705D8B0EED7A6BF09D0A65104E1ED
:100E3000090EA55DD8A003D0080EA76F02D0A5C0EB
:100E4000A7F0A751A55F000EA65BA751D8B408D0A4
:100E500084C0D9FF85C0DAFF2E0EDF6E844B852B50
:100E6000A751BBEC08F071C08FF072C090F073C056
:100E700091F074C092F0A1C04AF0A2C04BF0A3C0A0
:100E80004CF0A4C04DF08FC046F090C047F091C028
:100E900048F092C049F0ABEC0AF046C07AF047C087
:100EA0007BF048C07CF049C07DF083EC13F07AC041
:100EB0009DF07BC09EF07CC09FF07DC0A0F070D004
:100EC0009DC009F09EC00AF09FC00BF0A0C00CF0BE
:100ED000A751040D690EF324F66E080EF420F76E88
:100EE0000900F5CF0DF00900F5CF0EF00900F5CFA0
:100EF0000FF00A00F5CF10F055EC15F009C099F08D
:100F00000AC09AF00BC09BF00CC09CF099C016F080
:100F10009AC017F09BC018F09CC019F00A0E1A6E08
:100F2000000E1B6E000E1C6E000E1D6ECEEC15F03A
:100F300016C099F017C09AF018C09BF019C09CF029
:100F400000019951300F84C0D9FF85C0DAFFDF6EF0
:100F5000844B852B9DC016F09EC017F09FC018F0E3
:100F6000A0C019F0A751040D690EF324F66E080E07
:100F7000F420F76E0900F5CF1AF00900F5CF1BF049
:100F80000900F5CF1CF00A00F5CF1DF0CEEC15F0EE
:100F900016C09DF017C09EF018C09FF019C0A0F0B9
:100FA0000001A707A729D8B40CD08AD784C0D9FFDD
:100FB00085C0DAFF300EDF6E844B852BA507D8A0E5
:100FC000A607A551A611D8B4C2D0F0D793C0D9FFB7
:100FD00094C0DAFFDECF9DF0DDCF9EF0000E9EBF05
:100FE000FF0E9F6FA06F020E9327000E9423A0AFF9
:100FF0000AD0030E9513A01F9F1F9E1F9D6D000E0C
:101000009E239F23A023A551A611D8A408D09D51AB
:101010009E119F11A011D8A402D0A54BA62B010EA2
:10102000A76FA751040D690EF324F66E080EF42085
:10103000F76E0900F5509D5D0900F5509E590900B5
:10104000F5509F590900F550A059D8A005D0A72BFD
:101050000A0EA719D8A4E5D7A7518C6F8D6BA5519F
:101060008C5D8D51800A8E6FA651800A8E59D8A052
:1010700010D0A7518C6F8D6B8C51A55DA651800A45
:101080008E6F8D51800A8E59D8B003D0A7C0A5F0BD
:10109000A66B030E95158C6F000E96158D6F8C51F7
:1010A0008D11D8B44CD084C0D9FF85C0DAFF2D0E85
:1010B000DF6E844B852B43D0A5C08CF0A6C08DF08D
:1010C000D8908C378D37D8908C378D37690E8C251A
:1010D000F66E080E8D21F76E0900F5CF0DF00900B0
:1010E000F5CF0EF00900F5CF0FF00A00F5CF10F0A4
:1010F0009DC009F09EC00AF09FC00BF0A0C00CF08C
:1011000055EC15F009C016F00AC017F00BC018F026
:101110000CC019F00A0E1A6E000E1B6E000E1C6E2B
:10112000000E1D6ECEEC15F01650300F0001A76FAB
:1011300084C0D9FF85C0DAFFA7C0DFFFBAD7A507F3
:10114000D8A0A607A529B8E1A629D8A4B5D786C0F6
:10115000F6FF87C0F7FF864B872B0800F5CFA7F077
:10116000A751D8A46EEF04F084C0D9FF85C0DAFF80
:10117000000EDF6E12000001796F000179AFF6D02A
:10118000796D7951800A120FD8A08AD0000E126EA4
:101190000A0E116E000E0C6E640E0B6E7951096E04
:1011A0000A6A09BE0A0696EC15F009C00FF00AC0DB
:1011B00010F013EC15F0090E0F260F50040D350E2C
:1011C000F324F66E080EF420F76E0900F5CF4AF00E
:1011D0000900F5CF4BF00900F5CF4CF00A00F5CF30
:1011E0004DF0000E126E640E116E000179510F6EFB
:1011F000106A0FBE100613EC15F0120E0F260F50DA
:10120000040D350EF324F66E080EF420F76E090077
:10121000F5CF46F00900F5CF47F00900F5CF48F0CB
:101220000A00F5CF49F0ABEC0AF046C075F047C0B4
:1012300076F048C077F049C078F075C046F076C0C7
:1012400047F077C048F078C049F0000E0C6E0A0EE7
:101250000B6E00017951096E0A6A09BE0A0696EC06
:1012600015F00950040D350EF324F66E080EF42027
:10127000F76E0900F5CF4AF00900F5CF4BF00900F1
:10128000F5CF4CF00A00F5CF4DF0ABEC0AF046C0BC
:1012900071F047C072F048C073F049C074F012009A
:1012A0007951800A750FD8A04CD0000E126E0A0E2C
:1012B000116E79510F6E106A0FBE100613EC15F007
:1012C000090E0F260F50040D350EF324F66E080E8E
:1012D000F420F76E0900F5CF46F00900F5CF47F08E
:1012E0000900F5CF48F00A00F5CF49F0000E0C6E6A
:1012F0000A0E0B6E00017951096E0A6A09BE0A06D0
:1013000096EC15F00950040D350EF324F66E080E18
:10131000F420F76E0900F5CF4AF00900F5CF4BF045
:101320000900F5CF4CF00A00F5CF4DF0ABEC0AF018
:1013300046C071F047C072F048C073F049C074F005
:1013400012007951040D350EF324F66E080EF420C8
:10135000F76E0900F5CF71F00900F5CF72F00900C2
:10136000F5CF73F00A00F5CF74F012007951800ABE
:10137000120FD8A08AD0000E126E0A0E116E000E47
:101380000C6E640E0B6E7951096E0A6A09BE0A066C
:1013900096EC15F009C00FF00AC010F013EC15F030
:1013A000090E0F260F50040D010EF324F66E080EE1
:1013B000F420F76E0900F5CF4AF00900F5CF4BF0A5
:1013C0000900F5CF4CF00A00F5CF4DF0000E126E7B
:1013D000640E116E000179510F6E106A0FBE100677
:1013E00013EC15F0120E0F260F50040D010EF3240E
:1013F000F66E080EF420F76E0900F5CF46F00900EE
:10140000F5CF47F00900F5CF48F00A00F5CF49F0D5
:10141000ABEC0AF046C075F047C076F048C077F0F4
:1014200049C078F075C046F076C047F077C048F004
:1014300078C049F0000E0C6E0A0E0B6E0001795157
:10144000096E0A6A09BE0A0696EC15F00950040DE9
:10145000010EF324F66E080EF420F76E0900F5CFA6
:101460004AF00900F5CF4BF00900F5CF4CF00A0027
:10147000F5CF4DF0ABEC0AF046C071F047C072F00A
:1014800048C073F049C074F012007951800A750F9A
:10149000D8A04CD0000E126E0A0E116E79510F6E4C
:1014A000106A0FBE100613EC15F0090E0F260F5030
:1014B000040D010EF324F66E080EF420F76E0900F9
:1014C000F5CF46F00900F5CF47F00900F5CF48F019
:1014D0000A00F5CF49F0000E0C6E0A0E0B6E0001EB
:1014E0007951096E0A6A09BE0A0696EC15F0095090
:1014F000040D010EF324F66E080EF420F76E0900B9
:10150000F5CF4AF00900F5CF4BF00900F5CF4CF0CC
:101510000A00F5CF4DF0ABEC0AF046C071F047C0C1
:1015200072F048C073F049C074F012007951040D94
:10153000010EF324F66E080EF420F76E0900F5CFC5
:1015400071F00900F5CF72F00900F5CF73F00A00D1
:10155000F5CF74F012004950800B0001646F4950C0
:1015600049246A6F48BE6A816A51D8B40DD06A298D
:10157000D8A408D0000E466E000E476E000E486ECE
:10158000000E496E488E08D0000E466E000E476E63
:10159000000E486E000E496E4D50800B641B4D507E
:1015A0004D24656F4CBE65816551D8B40DD0652959
:1015B000D8A408D0000E4A6E000E4B6E000E4C6E82
:1015C000000E4D6E4C8E08D0000E4A6E000E4B6E13
:1015D000000E4C6E000E4D6E6551D8B403D06A51AA
:1015E000D8A409D0000E466E000E476E000E486E5D
:1015F000000E496E12004C504602F3CF6FF0F4CF4C
:1016000070F06F51666F676B686B696B70516B6FD1
:101610006C6B6D6B6E6B4B504702F3CF6FF0F4CF7A
:1016200070F06F516627000E67236823692370519D
:101630006B27000E6C236D236E234A504802F3CFB4
:101640006FF0F4CF70F06F516627000E67236823A8
:10165000692370516B27000E6C236D236E2368C0C5
:1016600069F067C068F066C067F0666B4A50470271
:10167000F3CF6FF0F4CF70F06F516627705167238E
:10168000000E6823000E69234B504602F3CF6FF023
:10169000F4CF70F06F51662770516723000E6823F6
:1016A000000E692368C069F067C068F066C067F023
:1016B000666B4A504602F3CF6FF0F4CF70F06F5173
:1016C000662770516723000E6823000E69234C5073
:1016D0004702F3CF6FF0F4CF70F06F516B2770516A
:1016E0006C23000E6D23000E6E234B504802F3CF87
:1016F0006FF0F4CF70F06F516B2770516C23000EB8
:101700006D23000E6E234C504802F3CF6FF0F4CFE0
:1017100070F06F51606F7051616F626B636B62C08C
:1017200063F061C062F060C061F0606B60516B2774
:1017300061516C2362516D2363516E2366C060F06A
:1017400067C061F068C062F069C063F0190E05D02F
:10175000D8906333623361336033E82EF9D7605138
:101760006B2761516C2362516D2363516E2368C0F6
:1017700069F067C068F066C067F0666B65516AC063
:1017800060F0616B6027000E6123820E60256F6F31
:10179000FF0E6121706F0FD0D8906B376C376D37AB
:1017A0006E3769BF6B81D89066376737683769379E
:1017B0006F07D8A070076DAFEFD7000E656F69AFE8
:1017C00017D0FF0E6615606FFF0E6715616FFF0E75
:1017D0006815626F7F0E6915636F60516111621148
:1017E0006311D8B403D0010E656F02D06BB1FBD783
:1017F0006551D8B41FD0010E6B27000E6C236D23EA
:101800006E236EA117D06BC060F06CC061F06DC02C
:1018100062F06EC063F0633563336233613360330B
:1018200060C06BF061C06CF062C06DF063C06EF0C0
:101830006F4B702B70BF0DD0705103E16F29D8A092
:1018400008D0000E6B6F000E6C6F800E6D6F7F0EF8
:1018500020D070BF05D070510EE16F05D8B00BD00D
:10186000000E6B6F000E6C6F000E6D6F000E6E6FD2
:10187000000E646F0FD06FC06AF0FF0E6B17FF0E83
:101880006C177F0E6D17000E6E176AB16D8FD890B2
:101890006A316E6F64516E136BC046F06CC047F0D6
:1018A0006DC048F06EC049F012001850800B216ED8
:1018B00018501824236E17BE23802350D8B40DD09F
:1018C0002328D8A408D0000E156E000E166E000E48
:1018D000176E000E186E178E06D0000E156E000ED5
:1018E000166E000E176E000E186E1C50800B226EC6
:1018F00021502218D8A4218C1C501C24226E1BBEFF
:1019000022802250D8B40DD02228D8A408D0000EAE
:10191000196E000E1A6E000E1B6E000E1C6E1B8ED2
:1019200006D0000E196E000E1A6E000E1B6E000E11
:101930001C6E2350225CD8B022D021AC02D0800E85
:10194000211A23C024F022C023F024C022F015C0A5
:1019500024F019C015F024C019F016C024F01AC0E4
:1019600016F024C01AF017C024F01BC017F024C0D2
:101970001BF018C024F01CC018F024C01CF0000E8E
:10198000246E235022C01DF01E6A1D5E000E1E5ADA
:101990001EBE2CD01E5004E11A0E1D5CD8A026D00D
:1019A0001550161017101810D8B402D0010E01D01F
:1019B000000E246E000E156E000E166E000E176ED1
:1019C000000E186E22C023F015D024A005D0D890A8
:1019D00024300109246E02D0D890243215B0248E10
:1019E00018341832173216321532232A2250235C4B
:1019F000D8A0EBD721BC28D02350D8A409D0000E02
:101A0000156E000E166E000E176E000E186E120088
:101A1000195015261A5016221B5017221C50182236
:101A200018A071D024A005D0D89024300109246ECC
:101A300002D0D890243215B0248E183418321732C0
:101A400016321532232A5FD01950155C1A501658D9
:101A50001B5017581850800A1D6E1C50800A1D58C4
:101A6000D8B025D01550195C1D6E16501A581E6E30
:101A700017501B581F6E18501C58206EFF0E1D2447
:101A8000156EFF0E1E20166EFF0E1F20176EFF0E26
:101A90002020186E800E211A246C2450D8A40FD058
:101AA000010E1526000E16221722182208D01950F2
:101AB000155E1A50165A1B50175A1C50185A1550BA
:101AC000161017101810D8A41CD02450D8A419D060
:101AD000000E156E000E166E000E176E000E186EBC
:101AE0001200D890153616361736183624BE1580D3
:101AF00024A002D0D88001D0D89024362350D8A476
:101B0000230617AEEED7000E226E24AE0BD024C0F3
:101B10001DF07F0E1D16D8B403D0010E226E02D028
:101B200015B0FBD72250D8B420D0010E1526000ED8
:101B300016221722182218A018D015C01DF016C0A2
:101B40001EF017C01FF018C020F0203420321F32C2
:101B50001E321D321DC015F01EC016F01FC017F03A
:101B600020C018F02328D8A4232A2328D8B403D0CF
:101B70002350D8A40DD0000E156E000E166E000E68
:101B8000176E000E186E2350D8A402D0000E216EDE
:101B900023A002D0178E01D0179ED8902330186E44
:101BA00021BE188E15C015F016C016F017C017F01C
:101BB00018C018F0120000017D6F6D0E00017D65E8
:101BC000ACD0000E4A6E000E4B6E000E4C6E3F0EF7
:101BD0004D6E000E116E640E106E7DC00EF00F6A19
:101BE0002EEC16F0D8900E360F36D8900E360F36F3
:101BF000480E0E26000E0F22350E0E24F66E080E2D
:101C00000F20F76E0900F5CF46F00900F5CF47F039
:101C10000900F5CF48F00A00F5CF49F0ABEC0AF027
:101C200046C079F047C07AF048C07BF049C07CF0EC
:101C3000000E116E0A0E106E000E0C6E640E0B6E0E
:101C40007DC009F00A6A9EEC16F009C00EF00AC0C9
:101C50000FF02EEC16F0D8900E360F36D8900E36C8
:101C60000F36240E0E26000E0F22350E0E24F66EB1
:101C7000080E0F20F76E0900F5CF4AF00900F5CFE6
:101C80004BF00900F5CF4CF00A00F5CF4DF079C0CC
:101C900046F07AC047F07BC048F07CC049F0ABEC1E
:101CA0000AF046C075F047C076F048C077F049C0EA
:101CB00078F075C046F076C047F077C048F078C03D
:101CC00049F0000E0C6E0A0E0B6E7DC009F00A6A18
:101CD0009EEC16F0D89009360A36D89009360A36A6
:101CE000350E0924F66E080E0A20F76E0900F5CFAE
:101CF0004AF00900F5CF4BF00900F5CF4CF00A008F
:101D0000F5CF4DF0ABEC0AF046C071F047C072F071
:101D100048C073F049C074F012000A0E7D656BD0A4
:101D2000000E4A6E000E4B6E000E4C6E3F0E4D6E56
:101D3000000E116E0A0E106E7DC00EF00F6A2EECB2
:101D400016F0D8900E360F36D8900E360F36240E79
:101D50000E26000E0F22350E0E24F66E080E0F20F2
:101D6000F76E0900F5CF46F00900F5CF47F00900FE
:101D7000F5CF48F00A00F5CF49F0ABEC0AF046C0C9
:101D800079F047C07AF048C07BF049C07CF079C058
:101D900046F07AC047F07BC048F07CC049F0000EA6
:101DA0000C6E0A0E0B6E7DC009F00A6A9EEC16F0EE
:101DB000D89009360A36D89009360A36350E0924E5
:101DC000F66E080E0A20F76E0900F5CF4AF00900FA
:101DD000F5CF4BF00900F5CF4CF00A00F5CF4DF0F0
:101DE000ABEC0AF046C071F047C072F048C073F027
:101DF00049C074F012007D51040D350EF324F66EC7
:101E0000080EF420F76E0900F5CF46F00900F5CF73
:101E100047F00900F5CF48F00A00F5CF49F0000E71
:101E20004A6E000E4B6E000E4C6E3F0E4D6EABECCC
:101E30000AF046C071F047C072F048C073F049C064
:101E400074F012003050800B3D6E30503024446EE0
:101E50002FBE44804450D8B40DD04428D8A408D014
:101E6000000E2D6E000E2E6E000E2F6E000E306EC8
:101E70002F8E06D0000E2D6E000E2E6E000E2F6ED1
:101E8000000E306E3450800B3D1A34503424456EB1
:101E900033BE45804550D8B40DD04528D8A408D0CD
:101EA000000E316E000E326E000E336E000E346E78
:101EB000338E06D0000E316E000E326E000E336E81
:101EC000000E346E3150321033103410D8A417D0B5
:101ED000000E2D6E000E2E6E000E2F6E000E306E58
:101EE000800E2F127F0E30123D5030122DC02DF07B
:101EF0002EC02EF02FC02FF030C030F01200445012
:101F0000D8A409D0000E2D6E000E2E6E000E2F6E7E
:101F1000000E306E1200455044C035F0366A355E12
:101F2000000E365A7F0E35243E6E000E36203F6E70
:101F30002DC039F02EC03AF02FC03BF030C03CF03D
:101F4000000E2D6E000E2E6E000E2F6E000E306EE7
:101F5000000E406E000E416E000E426E000E436E8B
:101F6000000E456E28D04550D8B411D0D8903936DF
:101F70003A363B363C36D8902D362E362F36303614
:101F800043BE2D80D89040364136423643363150DC
:101F9000395C32503A5833503B5834503C58D8A0F2
:101FA00009D0438C3150395E32503A5A33503B5A43
:101FB00034503C5A452A190E4564D5D739503A1049
:101FC0003B103C10D8B411D040800FD0D8902D36A3
:101FD0002E362F36303643BE2D80D89040364136CF
:101FE000423643363E06D8A03F062FAEEFD7000E4E
:101FF000456E43AE17D0FF0E4014356EFF0E4114F0
:10200000366EFF0E4214376E7F0E4314386E355015
:10201000361037103810D8B403D0010E456E02D0F8
:102020002DB0FBD74550D8B41FD0010E2D26000E81
:102030002E222F22302230A017D02DC035F02EC0F6
:1020400036F02FC037F030C038F0383438323732FD
:102050003632353235C02DF036C02EF037C02FF075
:1020600038C030F03E4A3F2A3FBE10D03F5003E117
:102070003E28D8A00BD0000E3F6E3E68000E2D6E9D
:10208000000E2E6E000E2F6E000E306E3FBE05D07D
:102090003F5011E13E04D8B00ED0000E3F6E000E4E
:1020A0003E6E000E2D6E000E2E6E000E2F6E000E78
:1020B000306E000E3D6E3EC044F044A002D02F8E24
:1020C00001D02F9ED8904430306E0ED763EC17F0BD
:1020D000F28EF28CC70E0A6E080E0B6E200E0C6E7E
:1020E00084EC14F00001D251D8B4A2D0000E80B01C
:1020F000010E94EC17F0F6EC17F0ABEC17F009C0FA
:102100000DF00AC00EF00F6A106A000E82EC11F09A
:102110000DC046F00EC047F00FC048F010C049F0A7
:10212000680E4A6EE80E4B6E9F0E4C6E3B0E4D6E67
:10213000ABEC0AF046C0D3F047C0D4F048C0D5F0AD
:1021400049C0D6F0000E4A6E000E4B6E200E4C6E4B
:10215000410E4D6ED3C031F0D4C032F0D5C033F053
:10216000D6C034F0D3C029F0D4C02AF0D5C02BF0AB
:10217000D6C02CF0000E256E000E266EA00E276E27
:10218000400E286E7BEC16F025C02DF026C02EF0F8
:1021900027C02FF028C030F022EC0FF02DC046F001
:1021A0002EC047F02FC048F030C049F0ABEC0AF029
:1021B00046C0ABF047C0ACF048C0ADF049C0AEF08F
:1021C000000E2D6E000E2E6EFA0E2F6E430E306E28
:1021D000ABC031F0ACC032F0ADC033F0AEC034F0C3
:1021E00022EC0FF02DC0C9F02EC0CAF02FC0CBF0EA
:1021F00030C0CCF0000E0001846F010E856F910E8F
:10220000866F080E876FC9C088F0CAC089F0CBC03E
:102210008AF0CCC08BF067EC04F0000E0A6E010E61
:102220000B6E200E0C6E84EC14F0000E0001D26FC9
:10223000D151D8B41FD0000E846F010E856FAE0E41
:10224000866F080E876F81A203D04E6A4E2A01D096
:102250004E6A4E500001886F896B67EC04F0000EE7
:102260000A6E010E0B6E200E0C6E84EC14F0000E44
:102270000001D16FD051D8B429D039EC17F0BFECA0
:1022800016F00001AF6FBFEC16F0BFEC16F00001C6
:10229000B06FBFEC16F0BFEC16F0000E0001846FBB
:1022A000010E856FBB0E866F080E876FB0C088F079
:1022B000896B67EC04F0000E0A6E010E0B6E200EA7
:1022C0000C6E84EC14F0000E0001D06FCF51D8B426
:1022D00009D7000E846F010E856FA00E866F080E61
:1022E000876FAFC088F0896B67EC04F0000E0A6E50
:1022F000010E0B6E200E0C6E84EC14F0000E00012B
:10230000CF6FF0D6156E1550D8A410AE1AD00DC0F0
:1023100011F00EC012F00FC013F010C014F0111E17
:10232000121E131E141E112A000E12221322142232
:1023300011C017F012C018F013C019F014C01AF031
:1023400008D00DC017F00EC018F00FC019F010C063
:102350001AF00D500E100F101010D8A409D0000E56
:102360000D6E000E0E6E000E0F6E000E106E12003F
:10237000960E166E06D0162AD8901A3219321832D6
:102380001732000E1714116E000E1814126E000E84
:102390001914136EFE0E1A14146E1150121013102D
:1023A0001410D8B40DD0E7D7162A010E1726000E48
:1023B000182219221A22D8901A32193218321732DA
:1023C000000E1714116E000E1814126E000E191460
:1023D000136EFF0E1A14146E1150121013101410F5
:1023E000D8B407D0E1D71606D89017361836193664
:1023F0001A3619BE03D0020E1660F5D716A0199E24
:10240000D890163216C011F0126A136A146A11C0FD
:1024100014F0136A126A116A11501712125018122E
:102420001350191214501A121550D8A410AE01D01E
:102430001A8E17C00DF018C00EF019C00FF01AC098
:1024400010F012000BC011F0126A136A0A34113630
:1024500001E312801150196E1950D8A409D0000E52
:10246000096E000E0A6E000E0B6E000E0C6E12004E
:102470000FC011F0126A136A0E34113601E3128094
:102480001150186E1850D8B4EAD70A8EFF0E0916EC
:10249000FF0E0A16000E0B160E8EFF0E0D16FF0E07
:1024A0000E16000E0F16000E146E000E156E000EA6
:1024B000166E000E176E7F0E195E1850980F195E7B
:1024C000180E186ED89014361536163617360D506D
:1024D000095C0E500A580F500B58D8A007D00D5069
:1024E000095E0E500A5A0F500B5A1480D8900936C4
:1024F0000A360B36182EE6D719AE0DD01950800AC1
:10250000970FD8A0ACD7D8901732163215321432A4
:10251000193EF9D70DD0170E196407D0A0D7D8905F
:10252000143615361636173619061950D8A4F7D7AB
:1025300014C009F015C00AF016C00BF017C00CF05B
:1025400012000B340C34166E1650D8A409D0000EAD
:10255000096E000E0A6E000E0B6E000E0C6E12005D
:102560000F341034156E1550D8B4F1D70B8EFF0E02
:102570000916FF0E0A16FF0E0B16000E0C160F8E14
:10258000FF0E0D16FF0E0E16FF0E0F16000E101684
:10259000000E116E000E126E000E136E000E146E01
:1025A0007F0E165E1550A00F165E200E156ED89089
:1025B00011361236133614360D50095C0E500A5877
:1025C0000F500B5810500C58D8A009D00D50095E70
:1025D0000E500A5A0F500B5A10500C5A1180D890B6
:1025E00009360A360B360C36152EE1D716AE0DD04D
:1025F0001650800A9F0FD8A0AAD7D8901432133251
:1026000012321132163EF9D70DD01F0E166407D0C4
:102610009ED7D89011361236133614361606165039
:10262000D8A4F7D711C009F012C00AF013C00BF0FC
:1026300014C00CF01200000E0914116E000E0A14E2
:10264000126E800E0B14136E7F0E0C14146E11504C
:10265000121013101410D8A408D0000E096E000E2A
:102660000A6E000E0B6E000E0C6E000E0D14116E35
:10267000000E0E14126E800E0F14136E7F0E1014C7
:10268000146E1150121013101410D8A408D0000E9C
:102690000D6E000E0E6E000E0F6E000E106E0CAE64
:1026A00009D0096C0A1ED8B00A2A0B1ED8B00B2A12
:1026B000800E0C5610AE09D00D6C0E1ED8B00E2A2E
:1026C0000F1ED8B00F2A800E1056000E091A000EE9
:1026D0000A1A000E0B1A800E0C1A000E0D1A000EAC
:1026E0000E1A000E0F1A800E101A0D50095C0E50B3
:1026F0000A580F500B5810500C58D8B002D0D89030
:102700001200D880120000017C357D35836F835123
:10271000D8A409D0000E7A6F000E7B6F000E7C6F7C
:10272000000E7D6F12007AC07EF07BC07FF07CC00F
:1027300080F07DC081F0200E05D0D89081338033A9
:102740007F337E33E82EF9D77E51826F7C8FFF0E68
:102750007A17FF0E7B17FF0E7C17000E7D17960E63
:10276000835F83AF0DD08351800A970FD8A0D2D753
:10277000D8907D337C337B337A33833FF9D70DD0C8
:102780001F0E836507D0C6D7D8907A377B377C3742
:102790007D3783078351D8A4F7D78251D8B408D0A6
:1027A0007D1F7C1F7B1F7A6D000E7B237C237D2386
:1027B0007AC07AF07BC07BF07CC07CF07DC07DF07D
:1027C0001200B90E5224D96EDA6A000EDA22AECFA8
:1027D000DFFF522A070E526402D0000E526E502ABA
:1027E0002CD0010E0001D26F1200010E0001D16F3A
:1027F0001200010E0001D06F1200010E0001CF6F18
:102800001200000E026E000E016EF3EC16F01200C4
:10281000010E026EF40E016EF3EC16F01200020EC1
:10282000026EEE0E016EF3EC16F01200030E026E55
:10283000E70E016EF3EC16F01200AE50300AD8B479
:10284000E0D7010AD8B4E4D7030AD8B4E8D7010A1C
:10285000D8B4ECD7720AD8B4C4D7030AD8B4C5D751
:10286000010AD8B4C6D7070AD8A41200C6D7B10E39
:102870005224D96EDA6A000EDA22000EDF6EABA4A3
:1028800014D0B10E5224D96EDA6A000EDA22000199
:10289000DF8201D80AD00500FA6EDB51FD6EDC51F3
:1028A000FE6EF850FF6EFA501200ABA214D0B10EBB
:1028B0005224D96EDA6A000EDA220001DF8401D8D0
:1028C0000AD00500FA6ED951FD6EDA51FE6EF8504D
:1028D000FF6EFA501200B10E5224D96EDA6A000E61
:1028E000DA22DF50D8B40DD001D812000500000163
:1028F000FA6ED751FD6ED851FE6EF850FF6EFA5049
:102900001200E1EC13F01200000E116E000E106EBA
:10291000000E116E000E106E1AD010500A240D6EAB
:1029200011500B200E6E0DC0F6FF0EC0F7FFF86AB7
:10293000070EF76403D00800F55005D0F6CFD9FF95
:10294000F7CFDAFFDF50BEEC17F0104A112A0C5017
:102950000D6E0E6A0D50105C1150800A0F6E0E50F5
:10296000800A0F58D8B0120010500A240D6E115072
:102970000B200E6E0DC0F6FF0EC0F7FFF86A070EB3
:10298000F76403D00800F55005D0F6CFD9FFF7CF94
:10299000DAFFDF500009D8B41200BFD7000E0914C7
:1029A000116E000E0A14126E800E0B14136E7F0E41
:1029B0000C14146E1150121013101410D8A408D057
:1029C000000E096E000E0A6E000E0B6E000E0C6EED
:1029D000000E0D14116E000E0E14126E800E0F14E8
:1029E000136E7F0E1014146E115012101310141069
:1029F000D8A408D0000E0D6E000E0E6E000E0F6EE5
:102A0000000E106E0D5009180AE10E500A1807E169
:102A10000F500B1804E110500C18D8B402D0D89005
:102A20001200D8801200000E146E12AE06D0116C87
:102A3000121ED8B0122A010E146E10AE06D00F6C02
:102A4000101ED8B0102A010E141A000E166E000EB9
:102A5000156E11501210D8B41CD0010E136E04D094
:102A6000D89011361236132A12AEFAD7D8901536EE
:102A7000163611500F5C12501058D8A005D01150C6
:102A80000F5E1250105A1580D89012321132132E48
:102A9000EDD71450D8B404D0156C161ED8B0162A31
:102AA00015C00FF016C010F01200000E116E000ECF
:102AB000126E000E136E000E146E0D500E100F10DD
:102AC0001010D8B42AD0010E156E06D0D8900D364D
:102AD0000E360F361036152A10AEF8D7D8901136AC
:102AE0001236133614360D50095C0E500A580F502A
:102AF0000B5810500C58D8A009D00D50095E0E503C
:102B00000A5A0F500B5A10500C5A1180D89010329C
:102B10000F320E320D32152EE1D711C009F012C05E
:102B20000AF013C00BF014C00CF01200000E0E6E71
:102B30000AAE06D0096C0A1ED8B00A2A010E0E6E23
:102B40000CAE04D00B6C0C1ED8B00C2A0B500C1021
:102B5000D8B418D0010E0D6E04D0D8900B360C36B8
:102B60000D2A0CAEFAD70B50095C0C500A58D8A0AD
:102B700004D00B50095E0C500A5AD8900C320B321C
:102B80000D2EF1D70E50D8B404D0096C0A1ED8B05F
:102B90000A2A09C009F00AC00AF012001A501B10D4
:102BA0001C101D10D8B424D0010E1E6E06D0D89073
:102BB0001A361B361C361D361E2A1DAEF8D71A5083
:102BC000165C1B5017581C5018581D501958D8A087
:102BD00008D01A50165E1B50175A1C50185A1D5018
:102BE000195AD8901D321C321B321A321E2EE7D7CA
:102BF00016C016F017C017F018C018F019C019F059
:102C000012009D9A6E0E096E280E0A6EDAEC17F00D
:102C1000080EB86E900EAB6E240EAC6ECF0EAF6E7B
:102C2000000EB06EF20E096E2F0E0A6EE4EC17F075
:102C3000DC0E096E2F0E0A6EDFEC17F0E20E096E45
:102C40002F0E0A6EE9EC17F0000E4F6E000E526E5A
:102C5000000E516E000E506E9D8A1200000E136E13
:102C6000000E126E10501110D8B41CD0010E146E4C
:102C700004D0D89010361136142A11AEFAD7D89055
:102C80001236133610500E5C11500F58D8A005D0D4
:102C900010500E5E11500F5A1280D890113210321F
:102CA000142EEDD712C00EF013C00FF01200F294E4
:102CB00056C0D6FF0001DD51DE11D8B40CD001D8CA
:102CC0000AD00500FA6EDD51FD6EDE51FE6EF85041
:102CD000FF6EFA50120089A602D0010E01D0000E3C
:102CE000FF0A016E01460146014689500118F70BA3
:102CF0000118896E1200000E291A000E2A1A000E01
:102D00002B1A800E2C1A25C015F026C016F027C0ED
:102D100017F028C018F029C019F02AC01AF02BC0EB
:102D20001BF02CC01CF055EC0CF015C025F016C0A3
:102D300026F017C027F018C028F012000B500C1016
:102D4000D8B418D0010E0D6E04D0D8900B360C36C6
:102D50000D2A0CAEFAD70B50095C0C500A58D8A0BB
:102D600004D00B50095E0C500A5AD8900C320B322A
:102D70000D2EF1D709C009F00AC00AF01200000EAA
:102D8000096E000E0A6E000E096E81A0FED7280E95
:102D9000E82EFED781A003D0D8800A3603D00A508F
:102DA0000A240A6E81B0FED7092A070E0964EDD7FE
:102DB0000A50120001EE00F0320EEE6AE806FDE164
:102DC00000EEB1F0260EEE6AE806FDE100EE4FF0EF
:102DD000070EEE6AE806FDE157905792000EF86E76
:102DE000000166EF10F001C003F002C004F0D890BB
:102DF00004320332D890043203320350906E01C083
:102E000003F0030E0316033AF00E03169750CF0B90
:102E10000310976E120009500A100B100C10D8B452
:102E200008D0000E091A000E0A1A000E0B1A800EA6
:102E30000C1A09C009F00AC00AF00BC00BF00CC054
:102E40000CF01200000E896E010E8A6E000E8B6E61
:102E5000F30E926EF60E936E870E946E000E0F01B7
:102E60005D6F340E5C6F270E5B6F000E856EF19EFA
:102E7000120093908A905E0E096E800EE82EFED7A7
:102E8000092EFCD700D08A80350EE82EFED700F040
:102E9000938081B0FED781A0FED781A01200FDD71C
:102EA00009500B02F3CF0DF0F4CF0EF009500C02D5
:102EB000F3500E260A500B02F3500E260DC009F0F7
:102EC0000EC00AF01200F4EC17F022EC17F0B5EC8B
:102ED00017F0CEEC17F0A0EC17F0C6EC17F074EC7E
:102EE00017F001EC16F01200000ED76E640ED66ECD
:102EF000640E566EF294F28AF00E096E2F0E0A6E70
:102F0000D5EC17F0D70ED56E12000B6E000E0A6EC0
:102F10003A0E0B6005D02F0E0B6402D0010E0A6E24
:102F20000AC009F0093012000A6E0AC009F0094609
:102F30000946C2500918830B0918C26EC2801200DC
:102F4000010EC26E000EC16E850EC06E000EC36E05
:102F5000000EC46E1200C4500C6E0B6AC3500B24DA
:102F6000096E000E0C200A6E1200700ED36E000E59
:102F7000D26E000E9B6E000EB56E1200096EACA2F2
:102F8000FED79EA8FED709C0ADFF1200F90EBB6E9A
:102F9000000EBC6E9E92060EBA6E12003C0E976E2C
:102FA000180E906E000E916E120009C0DDF00AC07E
:102FB000DEF0120009C0DFF00AC0E0F0120009C024
:102FC000D9F00AC0DAF0120009C0DBF00AC0DCF068
:102FD000120009C0D7F00AC0D8F01200AB98AB8835
:102FE0001200E1EC13F01200D09E1200C282120017
:042FF00012001200B9
:020000040020DA
:08000000FFFFFFFFFFFFFFFF00
:020000040030CA
:0E00000000285F3CFFD285FF0FC00FE00F40CD
:00000001FF
