:100000009FC10000CEC10000CCC10000CAC10000E9
:10001000C8C10000C6C10000C4C10000C2C10000C8
:10002000C0C10000BEC10000BCC10000BAC10000D8
:10003000B8C10000B6C10000B4C10000B2C10000E8
:10004000B0C10000AEC10000ACC10000AAC10000F8
:10005000A8C10000A6C10000A4C10000CBC50000DB
:10006000A0C100000C94A4080C947B089AC1000065
:1000700098C1000096C1000094C1000092C1000028
:1000800090C100008EC100008CC100008AC1000038
:10009000FCC70000D1C7000084C1000082C100007D
:1000A00080C100007EC100007CC100007AC1000058
:1000B00078C1000076C1000074C1000072C1000068
:1000C00070C100006EC100006CC100006AC1000078
:1000D00068C1000066C1000064C1000062C1000088
:1000E00060C10000EE03F303F80302040C0485046E
:1000F00016041E04260430043A04440453045D0428
:100100008504670471047B04FB0CFE0CED0CF10C00
:10011000F50C350D020D060D0C0D100D140D1A0DFC
:100120001E0D220D350D280D2C0D300D00407A10BE
:10013000F35A00A0724E18090010A5D4E80000E898
:100140007648170000E40B54020000CA9A3B0000F6
:1001500000E1F505000080969800000040420F0085
:100160000000A08601000000102700000000E80346
:10017000000000006400000000000A000000000011
:100180000100000000002C76D888DC674F0823DFD0
:10019000C1DFAE59E1B1B796E5E3E453C63AE651A3
:1001A000997696E8E6C28426EB898C9B62ED407CCA
:1001B0006FFCEFBC9C9F40F2BAA56FA5F490055A66
:1001C0002AF75C936B6CF9676DC11BFCE0E40D478B
:1001D000FEF520E6B500D0ED902E030094357705AE
:1001E0000080841E080000204E0A000000C80C3366
:1001F0003333330F986E12831141EF8D2114893BF5
:10020000E65516CFFEE6DB18D1844B381BF77C1D74
:10021000901DA4BBE424203284725E228100C9F1C7
:1002200024ECA1E53D27436F6E6E656374656443FE
:10023000422069732030780000002100240027004C
:100240002A002D00300033000101000004010701E5
:100250000A0100002200250028002B002E0031009A
:10026000340002010000050108010B010505050528
:10027000070508080808020202020A0A080804041E
:10028000040401010101010101010303030303034C
:100290000303040707070C0C0C0C0C0C0C0C0202DB
:1002A000020206060606060606060B0B0B0B0B0BD8
:1002B0000B0B010210202008081020401020408065
:1002C000020102010804020101020408102040801A
:1002D00080402010080402018004020180402010A8
:1002E00008040201080402010102040810204080F1
:1002F000010204081020408000000A0B02090C0DC6
:100300000E080703040100000000000000000000C8
:1003100000000000000000000000000000000000DD
:10032000000000001211100000000000000000009A
:100330000000000000000000000000000000390F75
:1003400011241FBECFEFD1E2DEBFCDBF00E00CBF56
:1003500025E0A2E6B3E001C01D92A436B207E1F7A2
:1003600013E0A0E0B2E0E4EDFDE200E00BBF02C06C
:1003700007900D92A236B107D9F711E0C0EAD1E09B
:1003800000E006C021970109802FFE010E94C214DF
:10039000CF39D10780E00807A9F70E944A0D0C94D5
:1003A000E8162ECECF93DF9390E0FC01EE54FD4F84
:1003B0002491FC01E459FD4F8491882361F190E080
:1003C000880F991FFC01E85CFD4FC591D491FC0199
:1003D000EE5AFD4FA591B491611109C09FB7F894F1
:1003E0008881209582238883EC912E230BC0623074
:1003F00061F49FB7F8948881322F309583238883E6
:10040000EC912E2B2C939FBF06C08FB7F894E881F8
:100410002E2B28838FBFDF91CF9108952FB7F894AB
:1004200060916D0370916E0380916F0390917003E2
:100430002FBF0895CF92DF92EF92FF920F931F93F9
:10044000CF93DF936C017A018B01C0E0D0E0CE1531
:10045000DF0581F0D8016D918D01D601ED91FC9100
:100460000190F081E02DC6011995892B11F021969C
:10047000EECF7E01C701DF91CF911F910F91FF90C9
:10048000EF90DF90CF900895089580E090E0089578
:10049000FC01538D448D252F30E0842F90E0821B8A
:1004A000930B541710F0CF96089501970895FC010F
:1004B000918D828D981761F0828DDF01A80FB11D9B
:1004C0005D968C91928D9F5F9F73928F90E00895BF
:1004D0008FEF9FEF0895FC01918D828D981731F079
:1004E000828DE80FF11D858D90E008958FEF9FEFCD
:1004F0000895FC01918D228D892F90E0805C9F4FA3
:10050000821B91098F739927089588E294E0F1DFA7
:1005100021E0892B09F420E0822F089581E793E000
:10052000E8DF21E0892B09F420E0822F0895FC0107
:10053000848DDF01A80FB11DA35ABF4F2C91848D6C
:1005400090E001968F739927848FA689B7892C93A1
:10055000A089B1898C91837080648C93938D848DF4
:10056000981306C00288F389E02D80818F7D8083F7
:100570000895EF92FF920F931F93CF93DF93EC01B7
:1005800081E0888F9B8D8C8D981305C0E889F9894F
:10059000808185FD25C0F62E0B8D10E00F5F1F4F6B
:1005A0000F731127E02E8C8DE8120BC00FB607FCDD
:1005B000FACFE889F989808185FFF5CFCE01B7DFD1
:1005C000F2CF8B8DFE01E80FF11DE35AFF4FF08251
:1005D0009FB7F8940B8FEA89FB89808180620AC0FB
:1005E0009FB7F894EE89FF896083E889F989808153
:1005F0008370806480839FBF81E090E0DF91CF9122
:100600001F910F91FF90EF900895CF93DF93EC012E
:10061000888D8823C1F0EA89FB89808185FD05C02A
:10062000A889B9898C9186FD0EC00FB607FCF5CF5D
:10063000808185FFF2CFA889B9898C9185FFEDCFA4
:10064000CE0175DFE8CFDF91CF91089580E090E093
:10065000892B19F063DF811120C080E090E0892BA5
:1006600019F053DF81111CC080E090E0892B41F02C
:1006700080E090E0892B21F00E940000811113C0DE
:1006800080E090E0892BA1F080E090E0892B81F060
:100690000E94000081110AC008950E940000DDCF71
:1006A0000E940000E1CF0E940000EACF0C940000FD
:1006B00008954627542745275427CA01882724E050
:1006C000880F991F2A95E1F748275927CA01892FD2
:1006D000992782958F7048275927CA01882765E096
:1006E000969587956A95E1F7842795270895CF9386
:1006F000DF93EC018A859B85603CA1F06B3D21F581
:10070000DC01ED91FC910190F081E02D6BED1995EC
:100710008A859B85DC01ED91FC910190F081E02DB3
:100720006DED18C0DC01ED91FC910190F081E02DA0
:100730006BED19958A859B85DC01ED91FC9101900B
:10074000F081E02D6CED06C0DC01ED91FC91019093
:10075000F081E02DDF91CF911994EF92FF920F93EA
:100760001F93CF93DF937C01EB018B01040F151FC7
:10077000C017D10721F06991C701B9DFF9CFDF9127
:10078000CF911F910F91FF90EF9008951F93CF93FA
:10079000DF93182FEB0161E005DE209711F460E094
:1007A00004C0CF3FD10539F461E0812FDF91CF91B3
:1007B0001F910C94CD0CE12FF0E0E850FD4FE49137
:1007C0008E2F90E0FC013197E231F10508F09DC0D9
:1007D0008827EE58FF4F8F4F0C94C21484B5806861
:1007E00084BDC7BD97C084B5806284BDC8BD92C0BA
:1007F00080918000806880938000D0938900C093AE
:10080000880088C080918000806280938000D093AF
:100810008B00C0938A007EC08091800088608093A6
:100820008000D0938D00C0938C0074C08091B00084
:1008300080688093B000C093B3006CC08091B0001A
:1008400080628093B000C093B40064C08091900037
:10085000806880939000D0939900C09398005AC00C
:1008600080919000806280939000D0939B00C09311
:100870009A0050C080919000886080939000D0933F
:100880009D00C0939C0046C08091A000806880932A
:10089000A0008091A0008F7B8093A000D093A9003E
:1008A000C093A80037C08091A00080628093A00010
:1008B000D093AB00C093AA002DC08091A0008860A7
:1008C0008093A000D093AD00C093AC0023C0809172
:1008D0002001806880932001D0932901C0932801D2
:1008E00019C080912001806280932001D0932B0158
:1008F000C0932A010FC0809120018860809320015D
:10090000D0932D01C0932C0105C0C038D1050CF047
:100910004BCF45CFDF91CF911F9108950E94CB1609
:10092000FC0124813581232B31F421E0611571050F
:10093000A1F0FB0108C0FC01808191816115710566
:1009400031F421E0FC018081882339F005C00E9448
:10095000D81621E0892B09F020E0822F0895FC01B0
:10096000808191810C9462150F931F93CF93DF9335
:10097000EC0188819981009729F02A813B81261713
:10098000370788F48B016F5F7F4F0E94EB1500974C
:1009900061F0998388831B830A832C813D81232BFB
:1009A00011F4FC01108281E001C080E0DF91CF9161
:1009B0001F910F910895EF92FF920F931F93CF9382
:1009C000DF93EC017B018A01BA01CEDF28813981F6
:1009D00081110DC02115310519F0C9010E94621560
:1009E000198218821D821C821B821A8206C01D83F6
:1009F0000C83B701C9010E94E116CE01DF91CF91AE
:100A00001F910F91FF90EF900895CF93DF93EC012A
:100A10006115710551F0FB0101900020E9F7319754
:100A2000AF01461B570BC7DF0CC088819981009727
:100A300011F00E946215198218821D821C821B828D
:100A40001A82CE01DF91CF910895BF92CF92DF92AB
:100A5000EF92FF920F931F93CF93DF937C016B0173
:100A60008A01E9012417350720F4812F8901C42F59
:100A7000D82FD70111961C921E9213961C921E928B
:100A8000129715961C921E92149740E050E06BE16D
:100A900072E0C70190DFF60184819581081719077C
:100AA000C0F48C179D0708F4EC01D601ED91FC9180
:100AB0001197EC0FFD1FB08010826D917C91600F3B
:100AC000711FC701A2DFD601ED91FC91EC0FFD1F54
:100AD000B082C701DF91CF911F910F91FF90EF90EE
:100AE000DF90CF90BF9008958F929F92AF92BF9268
:100AF000CF92DF92EF92FF920F931F93CF93DF93EA
:100B00001F921F92CDB7DEB78C017B01DC011196DD
:100B10001C921E9213961C921E92129715961C926E
:100B20001E92149740E050E06BE172E044DFD70181
:100B30001296ED91FC911397A190B1908EEF9FEFDB
:100B40006C01CA18DB08B3E0CB22DD24D701139671
:100B5000FC93EE9312978D919C91119701968D9332
:100B60009C93D7011296ED91FC911397A114B104B7
:100B700051F1CF01019613969C938E931297808129
:100B800089831A82F80184809580FFEF8F1A9F0A6B
:100B9000B401C801E9DE882391F0D8012D913C9180
:100BA000119714968D919C911597BE016F5F7F4FA1
:100BB000820F931F0E94E116F80195828482F1E072
:100BC000AF1AB108CECFCE0EDF1ED7011396DC923E
:100BD000CE921297C8010F900F90DF91CF911F9185
:100BE0000F91FF90EF90DF90CF90BF90AF909F90CC
:100BF0008F9008951F920F920FB60F9211242F938A
:100C00003F938F939F93AF93BF9380916D03909188
:100C10006E03A0916F03B091700330916C0323E0D9
:100C2000230F2D3720F40196A11DB11D05C026E824
:100C3000230F0296A11DB11D20936C0380936D03B9
:100C400090936E03A0936F03B09370038091680339
:100C500090916903A0916A03B0916B030196A11D65
:100C6000B11D8093680390936903A0936A03B093C6
:100C70006B03BF91AF919F918F913F912F910F90F7
:100C80000FBE0F901F9018956115710579F0FB014B
:100C900001900020E9F73197AF01461B570BDC01AB
:100CA000ED91FC910280F381E02D199480E090E0B9
:100CB00008958F929F92AF92BF92EF92FF920F93FF
:100CC0001F93CF93DF93CDB7DEB7A1970FB6F894FC
:100CD000DEBF0FBECDBF7C01FA01CB0119A22230CD
:100CE00008F42AE08E010F5D1F4F822E912CA12C5B
:100CF000B12CBF01A50194010E948714F901CA011A
:100D0000015011096A3014F4605D01C0695CD801BA
:100D10006C93232B242B252B61F7B801C701B4DF7B
:100D2000A1960FB6F894DEBF0FBECDBFDF91CF9175
:100D30001F910F91FF90EF90BF90AF909F908F9079
:100D400008950F931F93CF93DF93EC012115310585
:100D500041F4E881F9810190F081E02D642F19952B
:100D600001C0A7DF8C0169E172E0CE018DDF800F49
:100D7000911FDF91CF911F910F9108950F931F93B2
:100D8000CF93DF93EC0180DF8C0169E172E0CE014B
:100D90007BDF800F911FDF91CF911F910F910895FD
:100DA0000F931F93CF93DF93CDB7DEB7A7970FB6FF
:100DB000F894DEBF0FBECDBF6CE172E081E793E037
:100DC000DDDF8CE292E086D380E492E083D380E59D
:100DD00092E080D367D31BA21AA21DA21CA21FA25D
:100DE0001EA2BC01990F880B990B0E94891322E562
:100DF00037E240EA5BE30E94C4138E010F5F1F4F8E
:100E000022E044E00E94E40FBC01CE018296FDDDA9
:100E1000CE01829639D3FC0101900020E9F7319789
:100E2000AF01481B590BBC0180E592E0C8D2CE014E
:100E3000829695DD81E080936703A7960FB6F894BC
:100E4000DEBF0FBECDBFDF91CF911F910F910895EF
:100E500062E672E081E793E091DF10926703089504
:100E600064E772E081E793E089CF0ECF0F931F9381
:100E7000CF93DF93CDB7DEB7E3970FB6F894DEBF1D
:100E80000FBECDBF8C0163E872E081E793E076DFAF
:100E900066E972E081E793E0E8DFB801CE01889669
:100EA00023DECE01889656D3B801CE018E961CDE85
:100EB00066E073E0CE01889633DD8111A4C06CE258
:100EC00072E0CE0188962CDD882349F060916203A0
:100ED00081E068276093620388E05FD594C060E496
:100EE00072E0CE0188961CDD882309F456C022E00A
:100EF00030E040E050E0BE01625D7F4FCE010196E0
:100F0000A4DDCE010196C0D240E150E060E070E087
:100F10000E9403100FEF10E09801261B370BB90158
:100F200085E034DCCE0101961ADD24E030E042E0B9
:100F300050E0BE01625D7F4FCE01019686DDCE019D
:100F40000196A2D240E150E060E070E00E94031000
:100F50009801261B370BB90183E018DCCE010196FE
:100F6000FEDC26E030E044E050E0BE01625D7F4FF1
:100F7000CE0101966ADDCE01019686D240E150E0B5
:100F800060E070E00E9403109801261B370BB90146
:100F900084E0FCDBCE01019635C060E572E0CE0155
:100FA0008896BEDC882379F17DD21BA21AA21DA2ED
:100FB0001CA21FA21EA2BC01990F880B990B0E94B4
:100FC000891322E537E240EA5BE30E94C4138E01F5
:100FD0000F5F1F4F22E044E0F7D7BC01CE0182969D
:100FE00014DDCE01829650D2FC0101900020E9F779
:100FF0003197AF01481B590BBC0180E592E0DFD16E
:10100000CE018296ACDCCE018E96A4D263E872E06B
:1010100081E793E0B3DECE018E96A1DCCE01889607
:101020009EDCE3960FB6F894DEBF0FBECDBFDF9116
:10103000CF911F910F9108951F920F920FB60F92AB
:1010400011240BB60F922F933F934F935F936F939F
:101050007F938F939F93AF93BF93EF93FF9388E218
:1010600094E065DAFF91EF91BF91AF919F918F91DD
:101070007F916F915F914F913F912F910F900BBE98
:101080000F900FBE0F901F9018951F920F920FB6E2
:101090000F9211240BB60F922F938F939F93EF9380
:1010A000FF93E0913804F09139048081E0913E048F
:1010B000F0913F0482FD12C09081809141048F5FC6
:1010C0008F7320914204821751F0E0914104F0E0C7
:1010D000E85DFB4F958F8093410401C08081FF91B3
:1010E000EF919F918F912F910F900BBE0F900FBE9C
:1010F0000F901F9018951F920F920FB60F92112408
:101100000BB60F922F933F934F935F936F937F9301
:101110008F939F93AF93BF93EF93FF9381E793E0F8
:1011200006DAFF91EF91BF91AF919F918F917F91DF
:101130006F915F914F913F912F910F900BBE0F9048
:101140000FBE0F901F9018951F920F920FB60F921F
:1011500011240BB60F922F938F939F93EF93FF93CE
:10116000E0918103F09182038081E0918703F09107
:10117000880382FD12C0908180918A038F5F8F73F4
:1011800020918B03821751F0E0918A03F0E0EF5831
:10119000FC4F958F80938A0301C08081FF91EF916E
:1011A0009F918F912F910F900BBE0F900FBE0F90BC
:1011B0001F901895EF92FF920F931F93CF93DF9399
:1011C0007C01C901EB018B01040F151FC017D1076A
:1011D00029F06991AC01C7016CDAF8CFDF91CF91AA
:1011E0001F910F91FF90EF900895CF93DF93EC0143
:1011F000BC01635F7F4F42E050E0AFDA8A859B8598
:10120000DC01ED91FC910190F081E02D60ECDF912B
:10121000CF911994CF92DF92EF92FF920F931F9389
:10122000CF93DF931F921F92CDB7DEB78C017B0166
:101230005A83498342E050E0BE016F5F7F4F8DDAF1
:10124000F8012585368542E050E0BE016F5F7F4F93
:10125000C801B0DFF80196878587C980DA80CE0C97
:10126000DF1CEC14FD0481F0F7016081C8013FDA56
:10127000F80145855685F70161917F01C80119DAAA
:10128000F80196878587EDCFE980FA80F194E194A3
:10129000F108F3E0EF22FF2481E0E81AF10868F09A
:1012A00060E0C80124DAF8014585568560E0C80190
:1012B00000DAF80196878587EFCF0F900F90DF91C6
:1012C000CF911F910F91FF90EF90DF90CF900895F5
:1012D000EF92FF920F931F93CF93DF93CDB7DEB7BB
:1012E00028970FB6F894DEBF0FBECDBF7C017A837E
:1012F00069832B833C834D835E8318870F83DC01D6
:101300001E961C921E921D971A968D919C911B976A
:10131000DC01ED91FC910190F081E02D60EC1995DC
:1013200042E050E0BE016F5F7F4FC70116DAF70160
:101330002585368542E050E0BE016F5F7F4FC701D3
:1013400039DFD7011E969C938E931D9742E050E0A3
:10135000BE01695F7F4FC70100DAF7012585368539
:1013600042E050E0BE01695F7F4FC70123DFD70134
:101370001E969C938E931D9744E050E0BE016D5FD6
:101380007F4FC701EAD9F7012585368544E050E053
:10139000BE016D5F7F4FC7010DDFD7011E969C9385
:1013A0008E931D9728960FB6F894DEBF0FBECDBF63
:1013B000DF91CF911F910F91FF90EF900895AF9221
:1013C000BF92CF92DF92EF92FF920F931F93CF9332
:1013D000DF9300D01F92CDB7DEB76C015B015C8359
:1013E0004B8319821A828EE0E82E84E0F82E05E005
:1013F00010E020E030E0A9016BE070E0F701808DA3
:10140000918D66DFF60101900020E9F73197AF0179
:101410004C195D09B601F701808D918DFBDE4B8182
:101420005C81B501F701808D918DF4DE42E050E0E2
:10143000BE016D5F7F4FF701808D918DEBDE41E046
:1014400050E0BE016E5F7F4FF701808D918DE2DE2F
:1014500041E050E0BE016F5F7F4FF701808D918DBD
:10146000D9DEF701808D918DC0DE0F900F900F9027
:101470000F90DF91CF911F910F91FF90EF90DF9030
:10148000CF90BF90AF900895FC0124813581232B2C
:1014900021F080819181009721F410925B058BE50A
:1014A00095E0089580917B00877F80937B0082E4A4
:1014B00080937C0080917A00806480937A00809190
:1014C0007A0086FDFCCF809178002091790090E031
:1014D000922B0895CF92DF92EF92FF920F931F937A
:1014E000CF93DF931F92CDB7DEB76C0119828EE0E8
:1014F000E82E84E0F82E02E010E020E030E0A901C0
:101500006CE070E0F701808D918DE2DEF6010190D4
:101510000020E9F73197AF014C195D09B601F701D9
:10152000808D918D77DE41E050E0BE016F5F7F4F8F
:10153000F701808D918D6EDEF701808D918D55DEE6
:101540000F90DF91CF911F910F91FF90EF90DF905F
:10155000CF900895CF93DF93FC0144815581608142
:10156000718181E793E00E941A02EC0169E172E067
:1015700081E793E089DB8C0F9D1FDF91CF91089568
:10158000FC01A089B18982E08C93A485B5851C9269
:10159000A685B78580E18C93108EA489B58986E0F5
:1015A0008C93A289B3898C9180618C93A289B38931
:1015B0008C9188608C93A289B3898C9180688C937C
:1015C0000288F389E02D80818F7D80830895AF921A
:1015D000BF92CF92DF92FF920F931F93CF93DF932F
:1015E00000D000D0CDB7DEB7FF24F3948091CF04B4
:1015F0009091D004DC01ED91FC910084F185E02D07
:101600001995892B09F487C18091CF049091D0045A
:10161000DC01ED91FC910284F385E02D19958B3D61
:10162000910519F4F092DA04E1CF2091D8043091B9
:10163000D904803C910509F045C12830310508F4F2
:1016400033C10091D4041091D5048091D104882332
:1016500009F488C06FE173E08091C5049091C604DD
:1016600004DC4091D8045091D90460E070E02AE095
:101670008091C5049091C6041CDB69E273E08091FF
:10168000C5049091C604F1DB4091D4045091D50477
:10169000052E000C660B770B20E18091C50490911C
:1016A000C60407DB6DE473E08091C5049091C60425
:1016B000DCDBF8014081518160E070E020E1809145
:1016C000C5049091C604F5DA6EE473E08091C50418
:1016D0009091C604CADBD80114964D915D916D912D
:1016E0007C91179720E18091C5049091C604E1DABE
:1016F0006EE473E08091C5049091C604B6DBF801F6
:101700004281538160E070E020E18091C5049091B6
:10171000C604CFDA48E0C42ED12C2091D8043091F1
:10172000D9048091C5049091C604C216D306B8F4BA
:101730006EE473E09ADBE091D404F091D504EC0DF3
:10174000FD1D408150E060E070E020E18091C50423
:101750009091C604AEDAFFEFCF1ADF0ADECF69E15F
:1017600072E092DAC090D804D090D90482E0C81A0E
:10177000D108A090D404B090D50420E030E0A601B8
:10178000B50185EC94E016DDF501EC0DFD1D208121
:1017900031818217930741F08091D104882309F4A5
:1017A00083C06CE273E07BC0D8018D919C91823044
:1017B000910539F083309105E9F0019709F069C08E
:1017C00059C08091D104882309F470C06DE373E09F
:1017D0008091C5049091C60448DBF801448155818D
:1017E000668177812AE030E08091C5049091C6043B
:1017F000A8DA5CC08091D104882359F166E473E0D3
:101800008091C5049091C60430DBD80114964D91A7
:101810005D916D917C9117972AE08091C50490911C
:10182000C60447DA6EE473E08091C5049091C60463
:101830001CDBC090C504D090C604F80142815381DE
:1018400060E070E02AE0C60134DA69E172E0C601C6
:101850001BDAF801A481B5818D919C9111970097B5
:1018600009F05CC012962D913C911397232B09F03F
:1018700055C01AC060E573E08091C5049091C6041C
:101880007DDAE091CD04F091CE04309769F019959E
:101890000BC08091D104882339F06BE573E080910F
:1018A000C5049091C6046ADA00E010E01092D904F1
:1018B0001092D8041092DA040115110509F496CE9D
:1018C000C8015BC04091DA04442369F08C3D910566
:1018D00031F08D3D910529F48BED90E002C080EC54
:1018E00090E01092DA044091D6045091D704241766
:1018F000350708F07BCE4091D4045091D504B9014E
:101900006F5F7F4F7093D9046093D804FA01E20FA0
:10191000F31F80836BCE80E090E02FC01E830D8389
:10192000085F1F4F1C830B831A8219821296ED9158
:10193000FC911397309709F4B7CF0097D1F0149624
:101940002D913C911597A9015595479520FF0AC007
:10195000DC01A40FB51F2D913C91E20FF31F019004
:10196000F081E02DBE016F5F7F4F840F951F1995A9
:101970009BCFCE010196199597CF26960FB6F89476
:10198000DEBF0FBECDBFDF91CF911F910F91FF90B2
:10199000DF90CF90BF90AF900895362F90E0FC017C
:1019A000E850FD4F4491FC01EE54FD4F2491FC01A1
:1019B000E459FD4F9491992309F46BC0442309F431
:1019C00054C050E0FA013197E231F10508F04DC002
:1019D0008827EC57FF4F8F4FD5C7809180008F77B6
:1019E00007C0809180008F7D03C080918000877F39
:1019F000809380003AC084B58F7702C084B58F7D14
:101A000084BD33C08091B0008F7703C08091B00057
:101A10008F7D8093B00029C0809190008F7707C0A0
:101A2000809190008F7D03C080919000877F80938C
:101A300090001BC08091A0008F7707C08091A0000C
:101A40008F7D03C08091A000877F8093A0000DC090
:101A5000809120018F7707C0809120018F7D03C086
:101A600080912001877F80932001E92FF0E0EE0F25
:101A7000FF1FEE5AFD4FA591B4919FB7F894311115
:101A800004C08C912095282302C0EC912E2B2C931E
:101A90009FBF0895CF93DF9300D01F92CDB7DEB7DD
:101AA000789484B5826084BD84B5816084BD85B539
:101AB000826085BD85B5816085BD80916E00816045
:101AC00080936E00109281008091810082608093EB
:101AD00081008091810081608093810080918000ED
:101AE0008160809380008091B10084608093B10018
:101AF0008091B00081608093B000809191008260FD
:101B000080939100809191008160809391008091F9
:101B100090008160809390008091A100826080930A
:101B2000A1008091A10081608093A1008091A0001C
:101B300081608093A00080912101826080932101C7
:101B40008091210181608093210180912001816039
:101B50008093200180917A00846080937A00809144
:101B60007A00826080937A0080917A00816080930D
:101B70007A0080917A00806880937A001092C10088
:101B800081E793E0FDDC88E294E0FADC0E940E023B
:101B9000609363037093640380936503909366037B
:101BA00060E086E30E94D20161E088E00E94D201F9
:101BB00061E085E00E94D20161E083E00E94D201F1
:101BC00061E084E00E94D20167EA72E081E793E07D
:101BD000D5D887EC94E06C01990FEE08FF0880914E
:101BE000CF049091D004DC01ED91FC910190F08143
:101BF000E02D60EC199500E010E0A701960161E08E
:101C000070E085EC94E064DB85EC94E0EEDAA09083
:101C1000CD04B090CE041092CE041092CD040E9458
:101C20000E022B013C010E940E02DC01CB01841943
:101C30009509A609B709803D9740A105B10528F48B
:101C4000C6DC8C01009779F30AC0B092CE04A09252
:101C5000CD0461EE72E081E793E090D8C0CFDC0163
:101C600014964D915D916D917C9117978091D1045F
:101C7000C416D506E606F70669F5882339F065E54A
:101C800073E08091C5049091C60478D8B092CE04D8
:101C9000A092CD046BEB72E081E793E06FD880ED0A
:101CA00096E0909311048093100488E297E090935B
:101CB00017048093160480E397E090931D048093AB
:101CC0001C0486E397E0909323048093220406E2A9
:101CD00012E021C0882309F4A2CF6DEC72E080915C
:101CE000C5049091C604C1D8D80114964D915D9158
:101CF0006D917C9117972AE030E08091C504909116
:101D0000C6041FD88CCF81E793E00E94B9020F5F11
:101D10001F4F892B21F0F80164916111F4CF8EE0FF
:101D200094E06C01990FEE08FF0820E130E0B70164
:101D3000A60181E793E005D804E010E020E030E060
:101D4000A9016AE070E08091260490912704C0DA2E
:101D5000C982DA82EB82FC8244E050E0BE016F5F10
:101D60007F4F809126049091270454DA84E194E017
:101D7000092E000CAA0BBB0B89839A83AB83BC830F
:101D800044E050E0BE016F5F7F4F80912604909148
:101D9000270440DA8AE194E0092E000CAA0BBB0B61
:101DA00089839A83AB83BC8344E050E0BE016F5FBC
:101DB0007F4F80912604909127042CDA80E294E0F2
:101DC000092E000CAA0BBB0B89839A83AB83BC83BF
:101DD00044E050E0BE016F5F7F4F809126049091F8
:101DE000270418DA8091260490912704FED963ED28
:101DF00072E081E793E00E94BE061BC08091000262
:101E000081111DC00E940E020091630310916403B2
:101E10002091650330916603DC01CB01801B910B9F
:101E2000A20BB30B81329E44A105B10540F40E9480
:101E30002603CDDB809167038823C9F3DFCF68EFEA
:101E400072E081E793E00E94BE0644E050E06AE160
:101E500073E086E093E0B3DA109200020E940E0273
:101E600060936303709364038093650390936603A8
:101E7000DECFE8E2F4E01382128248EE53E060E045
:101E800070E044835583668377838BE092E091838F
:101E900080832DEC30E0358724872CEC30E03787C9
:101EA000268728EC30E0318B208B29EC30E0338B17
:101EB000228B2AEC30E0358B248B2EEC30E0378BF4
:101EC000268B118E128E138E148EA1E7B3E013961B
:101ED0001C921E92129714964D935D936D937C9372
:101EE000179711969C938E9385EC90E01D969C938A
:101EF0008E931C9784EC90E01F969C938E931E9774
:101F000080EC90E051969C938E93509781EC90E0FA
:101F100053969C938E93529782EC90E055969C93A7
:101F20008E93549786EC90E057969C938E93569799
:101F300059961C9259975A961C925A975B961C92E6
:101F40005B975C961C92A5ECB4E01196FC93EE9323
:101F500013961C921E92129715961C921E9214971D
:101F60001B96FC93EE931A9781E01C968C931C971A
:101F70008BED94E050969C938E931F9780E890E0B1
:101F800052969C938E93519754961C921E925397FF
:101F900055961C925597B0935D05A0935C05EEE0B5
:101FA000F4E0118210821382128217821682118647
:101FB00010861586148617861686138A128A158A45
:101FC000148AB18FA08F0895EF920F931F93CF9330
:101FD000DF93E80147FD02C034E001C034E1042E84
:101FE000000C550B57FF03C0519541955109E32E45
:101FF000022F242FAE013AD1CE01DF91CF911F9154
:102000000F91EF9008953F924F925F926F927F925F
:102010008F929F92AF92BF92CF92DF92EF92FF92F8
:102020000F931F93CF93DF935C016B017A016115CE
:10203000710519F0FB0191838083E114F10429F00B
:10204000C7010297839708F0E2C0E5012196F501E8
:102050001081812F90E002D1892B11F05E01F5CF24
:102060001D3229F42196F501118101E007C01B32D0
:1020700021F4E5012296F501118100E0E114F1045B
:1020800009F1F0E1EF16F10429F43EC010E3E11488
:10209000F10421F128E0E216F10401F154F4E2E048
:1020A000EE16F10421F5812C912CA12CB0E4BB2E6D
:1020B0003DC0FAE0EF16F10439F020E1E216F10438
:1020C000B1F42FC0103311F1FAE0EF2EF12CACEC8B
:1020D0008A2E982CA82CACE0BA2E28C078E0E72EE7
:1020E000F12C812C912CA12CE0E1BE2E1FC060E0D0
:1020F00070E080E090E897010F2C000C440B550B2A
:1021000006D449015A0112C0103359F488818F7DD9
:10211000883509F0BBCF19812296026080E1E82E54
:10212000F12C812C912CA12C68E0B62E40E060E0CF
:1021300070E0CB0127010F2C000C66087708FE0128
:1021400050ED352E310E29E0231570F42FEB210FC1
:102150002A3118F439EC332E06C02FE9210F2A3129
:1021600010F529EA322E310E232D30E02E153F05D1
:10217000D4F447FD15C086169706A806B90668F080
:10218000A3019201B5D3630D711D811D911D6130B5
:102190007105810520E8920710F04FEF01C041E082
:1021A00021961081CCCF202F2170C114D10471F061
:1021B000442329F02197F601D183C08307C001FF92
:1021C00019C02297F601D183C08314C047FF12C003
:1021D000222329F060E070E080E090E804C06FEF17
:1021E0007FEF8FEF9FE722E230E030935F0520938F
:1021F0005E0509C0222381F09095809570956195C8
:102200007F4F8F4F9F4F462F372F282F12C040E010
:1022100030E020E090E00DC097FFF5CF82E290E043
:1022200090935F0580935E056FEF7FEF8FEF9FE7E1
:10223000EACF642F732F822FDF91CF911F910F91DF
:10224000FF90EF90DF90CF90BF90AF909F908F90D6
:102250007F906F905F904F903F900895911154C27E
:10226000803219F089508550D0F708958F929F924F
:10227000AF92BF92CF92DF92EF92FF920F931F9394
:10228000CF93DF93CDB7DEB729970FB6F894DEBFB3
:102290000FBECDBF6A01122FB02E2BE3201720F006
:1022A000FF24F394F00E02C02CE3F22E0F2D27E052
:1022B000AE014F5F5F4F50D1BC014981842F8970BF
:1022C000813031F0E1FC06C0E0FE06C090E205C0BE
:1022D0009DE203C09BE201C090E05E2D507143FF80
:1022E0003CC0911102C083E001C084E0811718F462
:1022F000212F281B01C020E051110BC0F601822FB5
:1023000030E2882319F031938150FBCFC20ED11CEB
:1023100020E0992329F0D6019C93F60131966F01B4
:10232000C6010396E2FE0AC03EE4D6013C9341E4B6
:1023300011964C93119712963C9306C03EE6F60117
:10234000308341E641833283FC01322F40E2332364
:1023500009F442C041933150FACF42FF44C0911179
:1023600002C083E001C084E0811718F4212F281BEC
:1023700001C020E051110BC0F601822F30E288230A
:1023800019F031938150FBCFC20ED11C20E099236C
:1023900029F0D6019C93F60131966F01C601039690
:1023A000E2FE0BC039E4D6013C933EE411963C9327
:1023B000119736E412963C9307C039E6F601308354
:1023C0003EE6318336E63283FC01322F40E233238E
:1023D00019F041933150FBCFFC01E20FF11D108247
:1023E0008EEF9FEFA6C021E030E0911102C020E007
:1023F00030E0161617061CF4FB01319602C0E1E02E
:10240000F0E02E0F3F1FBB2021F0EB2DF0E03196C6
:1024100002C0E0E0F0E02E0F3F1FE12FF0E02E17AA
:102420003F071CF4121B212F01C020E08E2D887164
:1024300059F4F601822F30E2882319F0319381504C
:10244000FBCFC20ED11C20E0992329F0D6019C932A
:10245000F60131966F0151110BC0F601822F90E306
:10246000882319F091938150FBCFC20ED11C20E03C
:102470000F2D060F9A81342F307144FF03C0913322
:1024800009F40150101624F4093018F008E001C0D6
:1024900001E0AB0177FF02C040E050E0FB01E41B2C
:1024A000F50BA1E0B0E0AC0FBD1FEA0FFB1F8EE201
:1024B000A82E4B01801A91080B2D10E01195019563
:1024C00011094F3FBFEF5B0721F4D601AC92119683
:1024D0006D01641775072CF08416950614F481813C
:1024E00001C080E3415051093196D60111967D011A
:1024F0004017510724F0D6018C936701E2CF64178F
:10250000750739F4963320F4953319F4311101C06D
:1025100081E3F6018083F701822F90E2882319F08E
:1025200091938150FBCFF701E20FF11D108280E003
:1025300090E029960FB6F894DEBF0FBECDBFDF91B5
:10254000CF911F910F91FF90EF90DF90CF90BF90B0
:10255000AF909F908F900895283008F027E03327A0
:10256000DA01990F311D87FD9160009661057105B3
:1025700039F432602E5F3D9330E32A95E1F70895F8
:102580009F3F30F080387105610509F03C5F3C5F8A
:102590003D93913008F08068911DDF93CF931F9396
:1025A0000F93FF92EF92192F987F9695E92F9695AA
:1025B0009695E90FFF27EA57FE4F99273327EE2418
:1025C000FF24A701E70105900894079428F4360F2B
:1025D000E71EF81E491F511D660F771F881F991FA0
:1025E0000694A1F70590079428F4E70EF81E491FFA
:1025F000561FC11D770F881F991F661F0694A1F7EC
:102600000590079428F4F80E491F561FC71FD11DC7
:10261000880F991F661F771F0694A1F705900794EE
:1026200020F4490F561FC71FD81F990F661F771F29
:10263000881F0694A9F784911095177041F0D695DC
:10264000C79557954795F794E7941A95C1F7ECE22B
:10265000F1E06894159015913591659195910590EB
:102660007FE27395E118F10A430B560BC90BD009B1
:10267000C0F7E10CF11E431F561FC91FD01D7EF489
:10268000703311F48A95E6CFE894015030F0080FCA
:102690000AF40027021708F4202F2395022F7A331B
:1026A00028F079E37D932A95E9F710C07D932A9568
:1026B00089F6069497956795379517951794E118BD
:1026C000F10A430B560BC90BD00998F023957E9164
:1026D00073957A3308F070E37C932013B8F77E91FA
:1026E00070617D9330F0839571E37D9370E32A955B
:1026F000E1F71124EF90FF900F911F91CF91DF919F
:10270000992787FD90950895992788270895E8943B
:1027100009C097FB3EF490958095709561957F4F29
:102720008F4F9F4F9923A9F0F92F96E9BB279395D7
:10273000F695879577956795B795F111F8CFFAF4E7
:10274000BB0F11F460FF1BC06F5F7F4F8F4F9F4F18
:1027500016C0882311F096E911C0772321F09EE876
:10276000872F762F05C0662371F096E8862F70E0DC
:1027700060E02AF09A95660F771F881FDAF7880FB6
:102780009695879597F908950BD078C069D028F071
:102790006ED018F0952309F05AC05FC01124A2C072
:1027A0007ED0A0F3959FD1F3950F50E0551F629F07
:1027B000F001729FBB27F00DB11D639FAA27F00D9A
:1027C000B11DAA1F649F6627B00DA11D661F829FC1
:1027D0002227B00DA11D621F739FB00DA11D621FA6
:1027E000839FA00D611D221F749F3327A00D611DC3
:1027F000231F849F600D211D822F762F6A2F1124A5
:102800009F5750408AF0E1F088234AF0EE0FFF1FF7
:10281000BB1F661F771F881F91505040A9F79E3F2E
:10282000510570F014C05EC05F3FECF3983EDCF3DE
:10283000869577956795B795F795E7959F5FC1F76B
:10284000FE2B880F911D9695879597F9089597F916
:102850009F6780E870E060E008959FEF80EC089546
:1028600000240A941616170618060906089500246F
:102870000A9412161306140605060895092E0394E9
:10288000000C11F4882352F0BB0F40F4BF2B11F45D
:1028900060FF04C06F5F7F4F8F4F9F4F089557FDBC
:1028A0009058440F551F59F05F3F71F04795880FBE
:1028B00097FB991F61F09F3F79F087950895121655
:1028C00013061406551FF2CF4695F1DF08C0161601
:1028D00017061806991FF1CF8695710561050894B2
:1028E0000895E894BB2766277727CB0197F90895C9
:1028F000DB018F939F932DD0BF91AF91A29F800D4D
:10290000911DA39F900DB29F900D11240895A1E2F7
:102910001A2EAA1BBB1BFD010DC0AA1FBB1FEE1F59
:10292000FF1FA217B307E407F50720F0A21BB30BA4
:10293000E40BF50B661F771F881F991F1A9469F720
:1029400060957095809590959B01AC01BD01CF017C
:10295000089509D0A59F900DB49F900DA49F800D60
:10296000911D11240895A29FB001B39FC001A39FA0
:10297000700D811D1124911DB29F700D811D1124B8
:10298000911D0895EE0FFF1F881F8BBF0790F691D2
:10299000E02D19940F931F93CF93DF93823091050D
:1029A00010F482E090E0E0916205F091630520E090
:1029B00030E0A0E0B0E0309719F140815181028110
:1029C000138148175907C8F08417950769F41097C1
:1029D00031F012960C93129713961C9327C0009314
:1029E00062051093630522C02115310519F04217C5
:1029F000530718F49A01BD01EF01DF01F801DBCFA5
:102A000021153105F9F0281B390B2430310580F4EC
:102A10008A819B816115710521F0FB01938382837B
:102A200004C09093630580936205FE01329644C012
:102A3000FE01E20FF31F81939193225031093983F4
:102A400028833AC02091600530916105232B41F421
:102A500020910302309104023093610520936005B8
:102A600020910102309102022115310541F42DB768
:102A70003EB74091050250910602241B350BE091B0
:102A80006005F0916105E217F307A0F42E1B3F0BE0
:102A90002817390778F0AC014E5F5F4F24173507D0
:102AA00048F04E0F5F1F509361054093600581937E
:102AB000919302C0E0E0F0E0CF01DF91CF911F9150
:102AC0000F910895CF93DF93009709F481C0FC0123
:102AD000329713821282A0916205B091630510971C
:102AE00081F420813181820F931F20916005309104
:102AF00061052817390751F5F0936105E0936005EA
:102B000067C0ED0120E030E0CE17DF0740F44A81D6
:102B10005B819E0141155105F1F0EA01F5CFD383A8
:102B2000C28340815181840F951FC817D90759F47A
:102B300088819981840F951F0296918380838A8171
:102B40009B81938382832115310529F4F0936305DA
:102B5000E09362053DC0E901FB83EA834991599105
:102B6000C40FD51FEC17FD0761F480819181840F9C
:102B7000951F0296E90199838883828193819B83C3
:102B80008A83E0E0F0E012968D919C911397009774
:102B900019F0FD01DC01F7CF8D919C9111979D01FA
:102BA0002E5F3F4F820F931F20916005309161058A
:102BB0002817390769F4309729F4109263051092A9
:102BC000620502C013821282B0936105A093600572
:102BD000DF91CF9108956F927F928F929F92AF92E3
:102BE000BF92CF92DF92EF92FF920F931F93CF93FA
:102BF000DF93009781F4CB01DF91CF911F910F916B
:102C0000FF90EF90DF90CF90BF90AF909F908F900C
:102C10007F906F90BFCEFC01E60FF71F9C01225002
:102C20003109E217F30708F4A5C0EC01D9010D91B1
:102C30001C91119706171707A8F00530110508F425
:102C400097C0C80104978617970708F491C00250EF
:102C50001109061B170B019311936D937C93CF0100
:102C600031DF86C05B01A01AB10A4C01800E911EB3
:102C7000A0916205B0916305612C712CE12CF12CBF
:102C8000109709F446C08D919C911197A815B9052C
:102C9000B1F56C0142E0C40ED11CCA14DB0478F11A
:102CA0004C018A189B08640142E0C40ED11C1296A4
:102CB000BC9012971396AC91B5E0CB16D10440F0BE
:102CC000B282A38391828082D9016D937C9309C0E3
:102CD0000E5F1F4F800F911FF90191838083EB2DB1
:102CE000FA2FE114F10431F0D7011396FC93EE931F
:102CF00012973EC0F0936305E093620539C06816F1
:102D0000790608F43C017D0112960D90BC91A02D2E
:102D1000B7CF809160059091610588169906E1F41E
:102D200066167706C8F4809101029091020200971E
:102D300041F48DB79EB74091050250910602841B65
:102D4000950BE817F907B0F4F0936105E09360057F
:102D5000F901718360830CC0CB011CDE7C010097FC
:102D600049F0A801BE011BD0CE01ACDEC70104C0F2
:102D7000CE0102C080E090E0DF91CF911F910F91D2
:102D8000FF90EF90DF90CF90BF90AF909F908F908B
:102D90007F906F90089581E090E0F89419C0FB0156
:102DA000DC0102C001900D9241505040D8F70895C7
:102DB000FB01DC018D91019080190110D9F3990B71
:102DC0000895FB01DC0101900D920020E1F70895C8
:042DD000F894FFCFA5
:102DD4000100006405800000000000B9021A0248E6
:102DE400020503790257026B020D0A004D51545437
:102DF40020636F6E6E656374656421006573702D66
:102E04006C696E6B2D67342F63757272656E740016
:102E14006573702D6C696E6B2D67342F7267620059
:102E24006573702D6C696E6B2D67342F706F742F02
:102E340030004D51545420646973636F6E6E656342
:102E4400746564004D515454207075626C697368E4
:102E54006564003D3D3D3D3D3D3D3D3D3D3D3D3D8C
:102E64003D3D3D3D3D0052656365697665643A20AC
:102E7400746F7069633D00454C2D436C69656E74D5
:102E8400207374617274696E672100454C2D436C24
:102E940069656E742073796E6365642100424144F0
:102EA4003A2000454C2D4D5154542072656164798B
:102EB40000454C2D436C69656E742073796E6320F4
:102EC4006661696C656421007075626C6973686918
:102ED4006E6720746F206573702D6C696E6B2D673F
:102EE400342F766F6C7461676500636F6E610045A3
:102EF4004C433A20676F742000204000454C433A0D
:102F040020496E76616C69642043524300524553F4
:102F1400505F563A2000524553505F43423A2000D6
:102F24004E4545445F53594E432100434D443F3F72
:022F340000009B
:00000001FF
